:020000040000FA
:100000000C9462000C948A000C948A000C948A0070
:100010000C948A000C948A000C948A000C948A0038
:100020000C948A000C948A000C948A000C940408A6
:100030000C948A000C948A000C948A000C948A0018
:100040000C94BA070C948A000C9488070C946207ED
:100050000C948A000C948A000C948A000C948A00F8
:100060000C948A000C948A000000000025002800EF
:100070002B0000000000240027002A0000000000E0
:1000800023002600290004040404040404040202DA
:100090000202020203030303030301020408102007
:1000A0004080010204081020010204081020000012
:1000B0000008000201000003040700000000000027
:1000C0000000C00811241FBECFEFD8E0DEBFCDBFB7
:1000D00011E0A0E0B1E0EAE5F8E102C005900D9280
:1000E000A238B107D9F722E0A2E8B1E001C01D9221
:1000F000A436B207E1F710E0C2E6D0E004C02197D1
:10010000FE010E94250CC136D107C9F70E942909BA
:100110000C942B0C0C940000CF92DF92EF92FF9284
:10012000DC01A03282E0B807D4F5A53BB10514F09C
:10013000A4EBB0E04091520228E830E0241B3109E2
:1001400047FD3395220F331F220F331F6901330FF1
:10015000EE08FF084091530228E532E0241B3109E4
:1001600047FD3395220F331F220F331F032E000C40
:10017000440B550B2C193D094E095F09B7FF02C00E
:10018000B0E0A0E00E94E00B24EB30E040E050E063
:100190000E94B60BC20ED31EE41EF51ED601E091DE
:1001A0005102EC3080F52091520288E890E0821BE9
:1001B000910927FD9395880F991F880F991FA817FC
:1001C000B90784F02091530288E592E0821B9109DF
:1001D00027FD9395880F991F880F991FA817B907B6
:1001E0000CF4CD010297880F991F4FB7F8942E2F6A
:1001F00030E0F901EE0FFF1FE20FF31FE45DFD4F4A
:10020000928381834FBFFF90EF90DF90CF9008954E
:100210008CBD9DBD0895AF92BF92CF92DF92EF92B9
:10022000FF920F931F93CF93DF936C017B018B01A0
:10023000040F151FEB015E01AE18BF08C017D107F0
:1002400059F06991D601ED91FC910190F081E02D7A
:10025000C6010995892B79F7C501DF91CF911F91CF
:100260000F91FF90EF90DF90CF90BF90AF900895E7
:10027000FC01538D448D252F30E0842F90E0821BAC
:10028000930B541710F0CF96089501970895FC0131
:10029000918D828D981761F0A28DAE0FBF2FB11D89
:1002A0005D968C91928D9F5F9F73928F90E00895E1
:1002B0008FEF9FEF0895FC01918D828D981731F09B
:1002C000828DE80FF11D858D90E008958FEF9FEFEF
:1002D0000895FC01918D228D892F90E0805C9F4FC5
:1002E000821B91098F73992708958FE891E00E94EE
:1002F000690121E0892B09F420E0822F089580E034
:1003000090E0892B29F00E94750181110C94000066
:100310000895FC01A48DA80FB92FB11DA35ABF4F9A
:100320002C91848D90E001968F739927848FA689F4
:10033000B7892C93A089B1898C91837080648C9348
:10034000938D848D981306C00288F389E02D8081F7
:100350008F7D80830895EF92FF920F931F93CF9329
:10036000DF93EC0181E0888F9B8D8C8D98131AC0F0
:10037000E889F989808185FF15C09FB7F894EE89D7
:10038000FF896083E889F989808183708064808334
:100390009FBF81E090E0DF91CF911F910F91FF907F
:1003A000EF900895F62E0B8D10E00F5F1F4F0F7327
:1003B0001127E02E8C8D8E110CC00FB607FCFACFE2
:1003C000E889F989808185FFF5CFCE010E948901F6
:1003D000F1CFEB8DEC0FFD2FF11DE35AFF4FF082B3
:1003E0009FB7F8940B8FEA89FB8980818062CFCF19
:1003F000CF93DF93EC01888D8823B9F0AA89BB895C
:10040000E889F9898C9185FD03C0808186FD0DC046
:100410000FB607FCF7CF8C9185FFF2CF808185FF67
:10042000EDCFCE010E948901E9CFDF91CF910895F0
:10043000833081F028F4813099F08230A9F008955A
:100440008730A9F08830C9F08430B1F48091800001
:100450008F7D03C0809180008F7780938000089506
:1004600084B58F7784BD089584B58F7DFBCF80914F
:10047000B0008F778093B00008958091B0008F7D99
:10048000F9CF1F93CF93DF93282F30E0F901E25586
:10049000FF4F8491F901E656FF4FD491F901EA57D5
:1004A000FF4FC491CC23A9F0162F81110E9418028E
:1004B000EC2FF0E0EE0FFF1FE859FF4FA591B4912C
:1004C0008FB7F894EC91111108C0D095DE23DC931E
:1004D0008FBFDF91CF911F910895DE2BF8CFCF937F
:1004E000DF9390E0FC01E656FF4F24918A579F4F1F
:1004F000FC0184918823D1F090E0880F991FFC01C2
:10050000EE58FF4FA591B491FC01E859FF4FC591FA
:10051000D49161110EC09FB7F8948C91E22FE095B1
:100520008E238C932881E223E8839FBFDF91CF91B4
:1005300008958FB7F894EC91E22BEC938FBFF6CF30
:100540003FB7F8948091840190918501A091860134
:10055000B091870126B5A89B05C02F3F19F00196E1
:10056000A11DB11D3FBFBA2FA92F982F8827BC010D
:10057000CD01620F711D811D911D42E0660F771F35
:10058000881F991F4A95D1F708958F929F92AF9235
:10059000BF92CF92DF92EF92FF920E94A0024B0196
:1005A0005C0182E3C82ED12CE12CF12C0E94A00228
:1005B000681979098A099B09683E7340810591058C
:1005C000A8F321E0C21AD108E108F10888EE880EEC
:1005D00083E0981EA11CB11CC114D104E104F104F4
:1005E00029F7FF90EF90DF90CF90BF90AF909F9052
:1005F0008F900895BC016E5F7F4FDC01ED91FC91FF
:100600000190F081E02D40E0099591E0811190E0AA
:10061000892F089508958EBD00000DB407FEFDCF0B
:100620008EB50895DF92EF92FF920F931F93CF93B1
:10063000DF937C01062FD42E152F80E590E00E94D9
:10064000080160E0F70186850E94410282E10E9474
:100650000B03CD2DD12F0C0F1D2F111DC017D1074E
:1006600021F089910E940B03F9CF61E0F7018685A3
:10067000DF91CF911F910F91FF90EF90DF900C943D
:1006800041021F93CF93DF93EC01162F80E590E09A
:100690000E94080160E08E850E944102812F8068DF
:1006A0000E940B0380E00E940B03182F61E08E85EF
:1006B0000E944102812FDF91CF911F9108950F93E6
:1006C0001F93CF93DF93EC01062F142F80E590E06A
:1006D0000E94080160E08E850E944102802F0E94E6
:1006E0000B03812F0E940B0361E08E85DF91CF9178
:1006F0001F910F910C944102CF92DF92EF92FF92E3
:100700000F931F93CF93DF93EC016B01F42E8901BC
:1007100040E062E00E945F0344E06AE0CE010E9494
:100720005F0340E864E1CE010E945F03A6016F2DE4
:10073000CE010E94120343E062E0CE010E945F03FB
:100740008FB7F894C0908B01D0908C01E0908D0110
:10075000F0908E018FBF89E5C80ED11CE11CF11C01
:100760006AE0CE010E94410382FF1BC040E062E0CC
:10077000CE010E945F0364E4CE010E944103F801B0
:10078000808362E4CE010E944103F801818380E00E
:10079000DF91CF911F910F91FF90EF90DF90CF905D
:1007A00008952FB7F89480918B0190918C01A091BE
:1007B0008D01B0918E012FBF8C159D05AE05BF0533
:1007C00078F283E0E5CF2F923F924F925F926F9243
:1007D0007F928F929F92AF92CF92DF92EF92FF9291
:1007E0000F931F93CF93DF9300D0CDB7DEB74C01AB
:1007F0002B01D42E390180E0E114F10411F0F7014E
:1008000080813C2C329490EF3922380E40E062E037
:10081000C4010E945F034FE768E0C4010E945F03C8
:1008200040E864E1C4010E945F03A2016D2DC40190
:100830000E941203432D6AE1C4010E945F034CE051
:1008400062E0C4010E945F036AE1C4010E944103A7
:10085000482F40686AE1C4010E945F038FB7F89493
:1008600020908B0130908C0140908D0150908E0132
:100870008FBFF4E22F0E311C411C511C68E0C401F3
:100880000E944103982F907309F0C0C080FF15C0EB
:1008900083E00F900F90DF91CF911F910F91FF9008
:1008A000EF90DF90CF90AF909F908F907F906F9060
:1008B0005F904F903F902F9008952FB7F8948091BC
:1008C0008B0190918C01A0918D01B0918E012FBF71
:1008D00082159305A405B50588F2DACF6114710479
:1008E00009F469C00115110509F465C064E1C4018A
:1008F0000E944103382EF8018081831508F480C0DE
:1009000030823320E1F180E590E00E94080160E050
:10091000F40186850E9441023A9482E90E940B0309
:10092000CC20B1F08FEF90E09C0102C0220F331F6A
:10093000CA94E2F7690182E90E940B039C2D90950D
:10094000F301208192238C21982B9083CC24C39493
:1009500023014C0C511CC31440F482E90E940B0388
:10096000F20181932F01C394F6CF80E00E940B0324
:10097000F201808361E0F40186850E94410268E112
:10098000C4010E9441038770E114F10411F0F701E2
:10099000808323FC37C061147104B1F10115110586
:1009A00099F1AA2089F1F8014081413031F4843075
:1009B00029F58FEF6ECF80E0ECCF4230F8F0811157
:1009C0001DC042509E012F5F3F4FB301C4010E94E2
:1009D0007C0381115ECFF8019081690E711CF301D7
:1009E000329720819981291309C0F1E06F1A7108AB
:1009F000F30120819A81291709F44BCF87E049CF71
:100A000084E047CF82E045CF80E043CF6CE0C40173
:100A10000E944103282E837109F460CF81E039CF11
:100A20000F931F93CF93DF938C01D62FC42F0E9477
:100A30004103C0954C2F48236D2FC801DF91CF9102
:100A40001F910F910C945F038F929F92AF92CF9260
:100A5000EF92FF920F931F93CF93DF9300D000D0BC
:100A60001F92CDB7DEB74C0182E08D8340E064E297
:100A7000C4010E945F0340E066E2C4010E945F037C
:100A800046E268E4C4010E945F0386E28B838D81A5
:100A90008230B0F140E86CE1C4010E94100587E0AB
:100AA0008C83A12CC12CCE0104967C018E010B5F9E
:100AB0001F4F9E012F5F3F4F41E0BE016D5F7F4F93
:100AC000C4010E94E303982F811117C08D818230E9
:100AD000B9F48C81811114C081E00F900F900F90B8
:100AE0000F900F90DF91CF911F910F91FF90EF909A
:100AF000CF90AF909F908F90089581E0923069F3EE
:100B000080E0EBCF2F923F924F925F926F927F9255
:100B10008F929F92AF92BF92CF92DF92EF92FF920D
:100B20000F931F93CF93DF93CDB7DEB72D970FB6FB
:100B3000F894DEBF0FBECDBF16E0413508F045C1C9
:100B4000342E4B013C0140E86CE10E94100583E922
:100B50008983332029F081E0F4019081953008F4F5
:100B600080E022242394B12C9B2D990F990F990F8B
:100B7000D32CD91AD7FCD12C32E0882319F098E86D
:100B80009B8333E021E09D2D977009F420E09D2D9B
:100B9000959595959595290FC9F094E0811193E06D
:100BA000291708F4922FEB2DF0E03196E80DF91D8E
:100BB000232F4191A1E0B0E0AC0FBD1FA20FB11DEA
:100BC0004C932F5F422F431B491798F3882311F052
:100BD000F8E0DF0E8FE18D150CF082C090E79A836C
:100BE0008B819C8189279D8189279E8189278F837D
:100BF0009E01285F3F4F47E0BE016F5F7F4FC301FB
:100C00000E947C03182F8111E0C01A86E3E0EB8775
:100C1000DC86CE0107962C0199E09D87CA844C2D75
:100C20004295407F4C0D6AE1C3010E945F03A12CF5
:100C3000CE010A967C018E01055F1F4F92014D8502
:100C4000BE016F5F7F4FC3010E94E303182F823004
:100C500009F065C06CE1C3010E94410385FDB5C088
:100C60008F7109F480E2282F30E04D2DDD0C550BFB
:100C7000421753070CF09DC0D82EE82FE595E59557
:100C8000E595EF5F982F977081E009F480E0E80F19
:100C900081E090E08C0F9D1F8E0F911DFC01215073
:100CA00031092770332781E090E002C0880F991F37
:100CB0002A95E2F79C018081822B80838BCF85E986
:100CC0008983332031F081E0F4019081983008F07D
:100CD0004BCF80E049CF87E9898326E0B22EF9CF58
:100CE0009D2D97709A878D2D8595859585958E5F1D
:100CF000282F2295207F290F2A8321E0911101C0FE
:100D000020E0280F2D8744244394512C4C0E5D1E67
:100D1000480E511CE9E0E81BEB87DC867FCF811190
:100D200054C080E2D82E9C8590320CF457CF8B8132
:100D3000883809F040C083E093E0EB2DF0E0319675
:100D4000E80DF91D980FA1E0B0E0AC0FBD1FA80F92
:100D5000B11D2C9121938F5F8913F5CFBB84E3E004
:100D6000BE124DC08A8581114AC09E012D5F3F4F42
:100D700041E0B201C3010E947C03182F811125C0FC
:100D80009B81F201818198133CC09C8182819813E0
:100D900038C0808182FF12C02394F2E02F1609F43C
:100DA0008ECF83E0281609F496CF91E0291609F436
:100DB000CECE15E00AC082E094E0BFCFF401838775
:100DC000822D880F820D8F5F8083812F2D960FB625
:100DD000F894DEBF0FBECDBFDF91CF911F910F9171
:100DE000FF90EF90DF90CF90BF90AF909F908F904B
:100DF0007F906F905F904F903F902F90089511E0FB
:100E0000E4CF17E0E2CFFC0101900020E9F7319731
:100E1000AF01481B590BBC018FE891E00C940B010A
:100E20008F929F92AF92BF920F931F93CF93DF93B6
:100E3000CDB7DEB7A1970FB6F894DEBF0FBECDBF1A
:100E400019A2423008F44AE08E010F5D1F4F842E34
:100E5000912CB12CA12CA50194010E94E80BE62F46
:100E6000B901CA01EA30F4F4E05DD801EE938D01D6
:100E7000232B242B252B79F790E080E0109719F095
:100E8000CD010E940307A1960FB6F894DEBF0FBEF6
:100E9000CDBFDF91CF911F910F91BF90AF909F90E9
:100EA0008F900895E95CE1CFCF93DF930E94030711
:100EB000EC018CE191E00E9403078C0F9D1FDF91F4
:100EC000CF9108951F920F920FB60F9211242F9376
:100ED0003F934F935F936F937F938F939F93AF93C2
:100EE000BF93EF93FF938FE891E00E948901FF91F8
:100EF000EF91BF91AF919F918F917F916F915F9192
:100F00004F913F912F910F900FBE0F901F9018950A
:100F10001F920F920FB60F9211242F938F939F93CE
:100F2000EF93FF93E0919F01F091A0018081E09108
:100F3000A501F091A60182FD1BC090818091A801BE
:100F40008F5F8F732091A901821741F0E091A80172
:100F5000F0E0E157FE4F958F8093A801FF91EF914C
:100F60009F918F912F910F900FBE0F901F9018950A
:100F70008081F4CF1F920F920FB60F9211242F93FE
:100F80003F938F939F93AF93BF9380918B019091E9
:100F90008C01A0918D01B0918E013091830123E0ED
:100FA000230F2D3758F50196A11DB11D2093830104
:100FB00080938B0190938C01A0938D01B0938E014F
:100FC0008091840190918501A0918601B091870163
:100FD0000196A11DB11D8093840190938501A0937A
:100FE0008601B0938701BF91AF919F918F913F91FF
:100FF0002F910F900FBE0F901F90189526E8230F8A
:101000000296A11DB11DD2CF1F920F920FB60F9263
:1010100011242F933F934F935F936F937F938F93FD
:101020009F93AF93BF93CF93DF93EF93FF93809101
:101030008201C0915002D0E087FF24C01092850049
:1010400010928400809182018F5F80938201809151
:101050008201082E000C990B8C179D0724F48091B7
:1010600082018C30C4F180918400909185000496B7
:1010700080349C4908F47AC0809184009091850066
:10108000049676C080918201082E000C990B8C1773
:101090009D07C4F6E09182018E2FEE0F990BFC01A3
:1010A000EE0FFF1FE80FF91FE45DFD4F808186FF03
:1010B000C9CFE09182018E2FEE0F990BFC01EE0F4C
:1010C000FF1FE80FF91FE45DFD4F808160E08F7323
:1010D0000E944102B7CF2091840030918500E091B9
:1010E00082018E2FEE0F990BFC01EE0FFF1FE80F10
:1010F000F91FE45DFD4F81819281820F931F9093D0
:10110000890080938800E09182018E2FEE0F990B69
:10111000FC01EE0FFF1FE80FF91FE45DFD4F80811A
:1011200086FF11C0E09182018E2FEE0F990BFC011A
:10113000EE0FFF1FE80FF91FE45DFD4F808161E0B6
:101140008F730E944102FF91EF91DF91CF91BF9188
:10115000AF919F918F917F916F915F914F913F914F
:101160002F910F900FBE0F901F90189580E49CE96F
:1011700090938900809388008FEF80938201E3CF62
:10118000109292011092910188EE93E0A0E0B0E0FD
:101190008093930190939401A0939501B09396014D
:1011A00084E091E09093900180938F0185EC90E032
:1011B00090939C0180939B0184EC90E090939E011E
:1011C00080939D0180EC90E09093A00180939F011B
:1011D00081EC90E09093A2018093A10182EC90E0D9
:1011E0009093A4018093A30186EC90E09093A601D4
:1011F0008093A5011092A8011092A9011092AA0152
:101200001092AB0186E191E09093550280935402D5
:101210008AE08093620289E08093630280915002A9
:101220008C3098F491E0980F909350028093510283
:1012300090E0FC01EE0FFF1FE80FF91FE45DFD4F8A
:1012400088EB9BE09283818308958FEF8093510216
:101250000895CF93DF9300D000D0CDB7DEB7789458
:1012600084B5826084BD84B5816084BD85B58260AB
:1012700085BD85B5816085BD80916E00816080935C
:101280006E001092810080918100826080938100C5
:1012900080918100816080938100809180008160D5
:1012A000809380008091B10084608093B100809130
:1012B000B00081608093B00080917A008460809358
:1012C0007A0080917A00826080937A0080917A001F
:1012D000816080937A0080917A00806880937A00A0
:1012E0001092C100E0919F01F091A00182E0808303
:1012F000E0919B01F0919C011082E0919D01F091A1
:101300009E018FEC80831092A701E091A301F091E0
:10131000A40186E08083E091A101F091A201808187
:1013200080618083E091A101F091A20180818860B9
:101330008083E091A101F091A20180818068808387
:10134000E091A101F091A20180818F7D80831FB780
:10135000F89480918801811127C0E0E9F0E0849140
:10136000E4EAF0E09491E82FF0E0EE0FFF1FEE5872
:10137000FF4FA591B491EC91E92321F461E08AE05B
:101380000E94410261E08AE00E946F028CB5806198
:101390008CBD8CB580648CBD61E08DE00E946F02D5
:1013A00061E08BE00E946F02809188018F5F8093E3
:1013B00088011FBF61E0809162020E946F0261E0BC
:1013C000809162020E944102809163028F3F09F482
:1013D00083C160E00E946F022091630230E0F90156
:1013E000E255FF4F8491F901E656FF4F0491F90150
:1013F000EA57FF4F1491111160C161E080916302BF
:101400000E946F0260E0809163020E94410283E0CB
:1014100090E00197F1F761E0809163020E94410240
:101420000E94C50240E064E284E592E00E945F030E
:1014300040E066E284E592E00E945F0346E268E4F1
:1014400084E592E00E945F0340E864E584E592E071
:101450000E945F0349EA66E584E592E00E945F032B
:1014600043E068E584E592E00E945F0348EE6AE5A8
:1014700084E592E00E945F0340E46AE284E592E042
:101480000E945F034DE362E284E592E00E945F0305
:1014900068E284E592E00E944103982F93709330B4
:1014A00039F0482F436068E284E592E00E945F03D0
:1014B000809151028C3008F051C061E083E10E94BC
:1014C0006F0280915102282F30E0F901EE0FFF1FCB
:1014D000E20FF31FE45DFD4F9081907C9361908358
:1014E00010925202109253022CE0622F0E94190CAB
:1014F000829FB001112430E020E0AB01420F531F66
:10150000FA01EE0FFF1FE40FF51FE45DFD4F908120
:1015100096FD16C02F5F3F4F2C30310571F78111BA
:101520000FC01092800082E08093810010928500AD
:1015300010928400B19A80916F00826080936F0056
:10154000E09151028E2F90E0FC01EE0FFF1FE80F9B
:10155000F91FE45DFD4F8081806480838091890163
:1015600090918A010E948C0061E088E00E946F02E5
:1015700061E087E00E946F0282E291E00E945407DE
:1015800080E0882E80E0982E90E5B92E2AE5622E24
:10159000712C84E592E00E942405882309F481C01F
:1015A00084E592E00E94FA02882309F47AC08091CF
:1015B00057028B3009F0A8C080915802813809F099
:1015C000A3C080915902863909F09EC080915A02C9
:1015D000823509F099C08DE391E00E94540761E0E3
:1015E00088E00E94410260E087E00E944102809111
:1015F000890190918A01892B09F081C070928A013A
:10160000609289018091890190918A010E948C00E9
:101610008CE491E00E940307C0908901D0908A0178
:101620000D2C000CEE08FF084AE0C701B601F7FEDA
:101630000DC06DE28FE891E00E94AB01662777272D
:10164000CB016C197D098E099F094AE00E941007A1
:1016500083E691E00E945407B9821A829E012D5FB1
:101660003F4F42E0BE016F5F7F4F84E592E00E94F2
:101670007C03811110C0A12CC12CF12CE12C10E0B5
:1016800000E030E020E044E0BE016F5F7F4F84E582
:1016900092E00E94E30348E060E184E592E00E946A
:1016A00010058114910409F474CF0E9475018823F8
:1016B00009F46FCF0E9400006CCF81110E941802C4
:1016C000E12FF0E0EE0FFF1FE458FF4FA591B4911A
:1016D000EC910E2309F491CE4FE062E084E592E0B4
:1016E0000E945F0313E00E94C50262E084E592E07D
:1016F0000E94410384FF96CE1150A9F793CE109219
:101700008A01109289017ECF86E691E00E9403074C
:1017100004E512E020915602C80184559240281732
:101720001906A1F09CF0F80183818031E0F081E698
:1017300091E00E940307F801638170E090E080E08F
:1017400040E10E9410070F5F1F4FE4CF61E087E088
:101750000E94410260E088E00E9441028CE191E039
:101760000E94030779CF8FE191E0E3CF052E97FB2D
:101770001EF400940E94CD0B57FD07D00E94E80B89
:1017800007FC03D04EF40C94CD0B5095409530954A
:1017900021953F4F4F4F5F4F0895909580957095DD
:1017A00061957F4F8F4F9F4F08950E940A0CA59F10
:1017B000900DB49F900DA49F800D911D112408954C
:1017C000B7FF0C94D50B0E94D50B821B930B089589
:1017D000A1E21A2EAA1BBB1BFD010DC0AA1FBB1F35
:1017E000EE1FFF1FA217B307E407F50720F0A21BA7
:1017F000B30BE40BF50B661F771F881F991F1A9414
:1018000069F760957095809590959B01AC01BD013D
:10181000CF010895A29FB001B39FC001A39F700D97
:10182000811D1124911DB29F700D811D1124911DE8
:101830000895991B79E004C0991F961708F0961B2C
:10184000881F7A95C9F780950895EE0FFF1F0590C0
:10185000F491E02D0994F894FFCF00000000AB0153
:101860000B013801F801690147015B01000000002C
:1018700082052405FA020D0A002030005461702010
:10188000524649442F4E464320546167206F6E20D4
:1018900072656164657200417574686F72697A651A
:1018A000642054616700526F7461746520536572DF
:1018B000766F204D6F746F7220746F2000C2B0007D
:1018C000556E617574686F72697A656420546167DA
:0C18D0002077697468205549443A0000F4
:107E0000112484B714BE81FFF0D085E080938100F7
:107E100082E08093C00088E18093C10086E0809377
:107E2000C20080E18093C4008EE0C9D0259A86E02C
:107E300020E33CEF91E0309385002093840096BBD3
:107E4000B09BFECF1D9AA8958150A9F7CC24DD24C4
:107E500088248394B5E0AB2EA1E19A2EF3E0BF2EE7
:107E6000A2D0813461F49FD0082FAFD0023811F036
:107E7000013811F484E001C083E08DD089C08234E0
:107E800011F484E103C0853419F485E0A6D080C0E4
:107E9000853579F488D0E82EFF2485D0082F10E0AE
:107EA000102F00270E291F29000F111F8ED06801E7
:107EB0006FC0863521F484E090D080E0DECF843638
:107EC00009F040C070D06FD0082F6DD080E0C81688
:107ED00080E7D80618F4F601B7BEE895C0E0D1E017
:107EE00062D089930C17E1F7F0E0CF16F0E7DF06D8
:107EF00018F0F601B7BEE89568D007B600FCFDCFD4
:107F0000A601A0E0B1E02C9130E011968C91119780
:107F100090E0982F8827822B932B1296FA010C0160
:107F200087BEE89511244E5F5F4FF1E0A038BF0790
:107F300051F7F601A7BEE89507B600FCFDCF97BE46
:107F4000E89526C08437B1F42ED02DD0F82E2BD052
:107F50003CD0F601EF2C8F010F5F1F4F84911BD097
:107F6000EA94F801C1F70894C11CD11CFA94CF0C13
:107F7000D11C0EC0853739F428D08EE10CD085E9AC
:107F80000AD08FE07ACF813511F488E018D01DD067
:107F900080E101D065CF982F8091C00085FFFCCF94
:107FA0009093C60008958091C00087FFFCCF809118
:107FB000C00084FD01C0A8958091C6000895E0E648
:107FC000F0E098E1908380830895EDDF803219F02E
:107FD00088E0F5DFFFCF84E1DECF1F93182FE3DFCA
:107FE0001150E9F7F2DF1F91089580E0E8DFEE27F6
:047FF000FF270994CA
:027FFE00040479
:00000001FF
